:1000000012C021C020C01FC01EC01DC01CC01BC00C
:100010001AC019C018C017C016C015C014C013C02C
:1000200012C011C010C011241FBECFE5D4E0DEBF46
:10003000CDBF20E0A0E6B0E001C01D92A436B2071B
:10004000E1F70FD279C2DCCF482F20B330E002C0F5
:10005000359527958A95E2F720FD14C08FE39CE93A
:100060000197F1F700C0000090B3892F90E002C023
:10007000959587954A95E2F78170992721E0822727
:100080008170089580E00895C09A8091630088236C
:1000900021F081E0D9DF8111F8CFC09808958091D7
:1000A0006200882391F0C09A8FE19EE40197F1F7F6
:1000B00000C00000C0988FE19EE40197F1F700C0F6
:1000C000000082E0C1DF8111EACF089580916100D4
:1000D000882391F0C09A8FE39CE90197F1F700C063
:1000E0000000C0988FE39CE90197F1F700C0000081
:1000F00084E0AADF8111EACF08958091600088230F
:10010000C1F0C09A2FEF89EF90E0215080409040DD
:10011000E1F700C00000C0982FEF89EF90E0215078
:1001200080409040E1F700C0000085E08DDF811144
:10013000E4CF089580916100882309F47BC0809109
:100140006000882309F476C083E090E0C09AEFE174
:10015000FEE43197F1F700C00000C098EFE1FEE443
:100160003197F1F700C00000019781F7C09A8FE343
:100170009CE90197F1F700C00000C098EFE1FEE4B0
:100180003197F1F700C0000083E090E0C09AEFE102
:10019000FEE43197F1F700C00000C098EFE1FEE403
:1001A0003197F1F700C00000019781F7C09A8FE303
:1001B0009CE90197F1F700C00000C098EFE1FEE470
:1001C0003197F1F700C0000083E090E0C09AEFE1C2
:1001D000FEE43197F1F700C00000C098EFE1FEE4C3
:1001E0003197F1F700C00000019781F7C0988FE5C3
:1001F0009DE60197F1F700C00000C09AEFE3FCE92B
:100200003197F1F700C00000C0988FE19EE401979C
:10021000F1F700C00000C09AEFE5FAEE3197F1F770
:1002200000C00000C0988FE39CE90197F1F700C07F
:10023000000080CF089580916200882309F462C095
:1002400080916100882309F45DC083E090E0C09A4A
:100250002FEF35EA4EE0215030404040E1F700C03A
:100260000000C098EFE3FCE93197F1F700C000000F
:10027000019769F783E090E0C09AFFEF21EE34E048
:10028000F15020403040E1F700C00000C098EFE19D
:10029000FEE43197F1F700C00000019769F782E3AF
:1002A00090E0C09AEFE3FCE93197F1F700C000005D
:1002B000C098EFE1FEE43197F1F700C0000001972C
:1002C00081F7C0988FE39CE90197F1F700C0000027
:1002D00082E390E0C09AEFE1FEE43197F1F700C0CD
:1002E0000000C098EFE1FEE43197F1F700C0000094
:1002F000019781F7C0988FE39CE90197F1F700C05F
:10030000000099CF089580916300882309F4A8C064
:1003100080916200882309F4A3C082E390E0C09A30
:10032000EFE1FEE43197F1F700C00000C098EFE183
:10033000FEE43197F1F700C00000019781F7C09803
:100340008FE39CE90197F1F700C0000082E390E0A1
:10035000C09AEFE3FCE93197F1F700C00000C098C4
:10036000EFE1FEE43197F1F700C00000019781F75B
:10037000C0988FE39CE90197F1F700C000008EE17F
:1003800090E0C09AEFEFF9EF20E0E150F04020401C
:10039000E1F700C00000C098EFE1FEE43197F1F70B
:1003A00000C00000019769F7C0988FE39CE90197AE
:1003B000F1F700C000008EE190E0C09AEFEFF6E7A1
:1003C00021E0E150F0402040E1F700C00000C0987B
:1003D000EFE1FEE43197F1F700C00000019769F703
:1003E000C0988FE39CE90197F1F700C0000084E119
:1003F00090E0C09AEFEFF3EF21E0E150F0402040B1
:10040000E1F700C00000C098EFE1FEE43197F1F79A
:1004100000C00000019769F7C0988FE39CE901973D
:10042000F1F700C000008AE090E0C09AEFEFF0E73B
:1004300022E0E150F0402040E1F700C00000C09809
:10044000EFE1FEE43197F1F700C00000019769F792
:10045000C0988FE39CE90197F1F700C0000053CFEB
:10046000089581B3897C81BB82B3866382BBB89ACD
:1004700081E0EADD882331F09091630081E08927F3
:100480008093630082E0E0DD882331F09091620088
:1004900081E089278093620084E0D6DD882331F0F3
:1004A0009091610081E089278093610085E0CCDD37
:1004B000882331F09091600081E08927809360006B
:1004C000209163009091620080916100222351F09D
:1004D000911128C081112EC08091600081112AC025
:1004E000D3DDC6CF992341F0811116C08091600001
:1004F000811120C0D4DDBCCF882331F08091600011
:10050000811108C0E3DDB4CF80916000882391F0B1
:10051000F4DDAECF0FDEACCF8091600081110AC058
:100520008ADEA6CF811106C080916000811102C0D1
:0C053000EADE9ECFC0989CCFF894FFCF6D
:00000001FF
